:060000000A128A11FC2F18
:100F4E00C0308316031381008501870186011F308F
:100F5E008800C92F0130C62F0230C62F0330C62F8E
:100F6E000430C62F0530C62F0630C62F0730C62FC9
:100F7E000830C62F0930C62FC52FC82F0F30850059
:100F8E00C92F85018312081EF92F831208080F3905
:100F9E00F0007008F1007108003A0319B12F013A00
:100FAE000319B32F033A0319B52F063A0319B72FB6
:100FBE00013A0319B92F033A0319BB2F0E3A03193D
:100FCE00BD2F013A0319BF2F033A0319C12F063A59
:100FDE000319C32F013A0319C42F033A0319C52F5E
:100FEE00C82FC92F0A128A11002883010A128A11EA
:020FFE00A72F1B
:02400E0071FF40
:00000001FF
