:060000000A128A11122809
:10000800FE00030EF0000408F1000A08F200831253
:1000180003137F08F3000A128A11372E0A128A1175
:100028001528F801F90183160313AB01AC01AD01E2
:10003800AE0183010A128A11212883160313A9012C
:10004800AA01FF3085008601870183120313860108
:1000580087018030831603139F00413083120313F6
:100068009F000C13831603130C170B178B17E8301C
:10007800F4000330F5000A128A114E260A128A117A
:10008800831203131F1583160313A901AA01A701DD
:10009800A801A201A301831603132E082D04031936
:1000A8004F28AD01AE01831203131E0883160313F4
:1000B800A000A1012008A9002108AA002A08A1007F
:1000C8002908A0002008A100A0012008A9002108F3
:1000D800AA0029081E04A0002A08A1002008A900D7
:1000E8002108AA002A08F701F7072908F601F607E8
:1000F800CD30F4000030F5000A128A119E240A124D
:100108008A11750883120313A601A6077408A501AE
:10011800A5070A128A1112260A128A1183120313DA
:100128002508EA002608EB002708EC000A128A11C5
:100138003E240A128A11831203136A0883160313D2
:10014800A400831203136B0883160313A5008312FC
:1001580003136C0883160313A600240883120313E1
:10016800BB0083160313250883120313BC008316F0
:100178000313260883120313BD000A128A114623AB
:100188000A128A11831203133C0883160313A3016E
:10019800A307831203133B0883160313A201A207C4
:1001A8002A08F701F7072908F601F607CD30F40009
:1001B8000030F5000A128A11FB240A128A11750808
:1001C80083120313A601A6077408A501A5070A123E
:1001D8008A1112260A128A11831203132508AE0007
:1001E8002608AF002708B000D730AB00A330AC001A
:1001F8004130AD000A128A118E220A128A11831226
:1002080003132B08EA002C08EB002D08EC000A1257
:100218008A113E240A128A11831203136A0883166C
:100228000313A400831203136B0883160313A5009A
:10023800831203136C0883160313A6002408831281
:100248000313BB0083160313250883120313BC0092
:1002580083160313260883120313BD000A128A119A
:1002680046230A128A11831203133C0883160313C8
:10027800A801A807831203133B0883160313A701D9
:10028800A7070A3027062804031D5229A701A80139
:100298000130A2070318A30A0030A3072C082B0477
:1002A80003195F2983120313071087140715831690
:1002B80003132208672983120313071487100711F1
:1002C8008316031327080F39831203138600831636
:1002D80003132C082B04003003190130A000A101DE
:1002E8002008AB002108AC00E830F4000330F5002A
:1002F8000A128A114E260A128A11831203131F1535
:100308004F28831203135D08E3005E08E4005F08CA
:10031800E5000310640D650DE6006608E900600855
:10032800E3006108E4006208E5000310640D650D50
:10033800E6006608E80069080319AE29680869023A
:100348000318B5296903FF3A6807E3001930630207
:10035800031CB5296008DD006108DE006208DF00C3
:100368000800680803190800690868020318C42906
:100378006803FF3A6907E3001930630203180800AD
:100388000630E3006308E700DF1BE717E21B671787
:10039800DE17FF30DD05FF30DE050030DF05E11731
:1003A800FF30E005FF30E1050030E205680869022A
:1003B8000318042A01300310E00DE10DE20DFF3EA1
:1003C800031DDF290130E802680869060319FF29BF
:1003D8000130E702670807390319FF29DE290130D0
:1003E8000310DF0CDE0CDD0CFF3E031DF429013089
:1003F800E3006308E9076908680603192D2AF32949
:100408006908680203182D2A01300310DD0DDE0D7E
:10041800DF0DFF3E031D092A0130E902680869065D
:100428000319292A0130E702670807390319292A1D
:10043800082A01300310E20CE10CE00CFF3E031D1A
:100448001E2A0130E3006308E80769086806031DEF
:100458001D2AE71F3F2AFF30DD06FF30DE06FF308A
:10046800DF060130DD07003003180130DE070030F9
:1004780003180130DF07671F512AFF30E006FF30FD
:10048800E106FF30E2060130E007003003180130D2
:10049800E107003003180130E207E7015D08E007D3
:1004A8005E08031103185E0A031DE1075F080311C4
:1004B80003185F0A031DE207E21F742AFF30E006F3
:1004C800FF30E106FF30E2060130E0070030031894
:1004D8000130E107003003180130E207E701E70ABD
:1004E8006008A0006108A1006208A2006908E30092
:1004F8006308A3006708E4006408A4000A128A11CC
:10050800D423831203132008DD002108DE0022080B
:10051800DF000800831203132E08B1002F08B20071
:100528003008B3000310320D330DB4003408B9009D
:10053800B908031DA62A0030AB000030AC0000301B
:10054800AD0008002B08B1002C08B2002D08B3003C
:100558000310320D330DB4003408BA00BA08031D75
:10056800BC2A0030AB000030AC000030AD00080001
:100578000030B6000030B7000030B80089303A07C4
:10058800B1003108B9022E08B1002F08B2003008B6
:10059800B30010300310B30CB20CB10CFF3E031DB6
:1005A800CE2A3108B4003408BA002B08B1002C0850
:1005B800B2002D08B30010300310B30CB20CB10C0C
:1005C800FF3E031DE02A3108B4003408BA06803023
:1005D800B1003108BA05AF17FF30AE05FF30AF05DF
:1005E8000030B005AC17FF30AB05FF30AC0500306C
:1005F800AD051830B1003108B50001300310B60D53
:10060800B70DB80DFF3E031D022B2D083002031D48
:10061800132B2C082F02031D132B2B082E02031C4F
:10062800202B2B08AE022C08031C2C0FAF022D0820
:10063800031C2D0AB002361401300310AE0DAF0DA5
:10064800B00DFF3E031D212B0130B502031D012B08
:100658003608A0003708A1003808A2003908B10000
:100668003108A3003A08B2003208A4000A128A111D
:10067800D423831203132008AB002108AC002208FE
:10068800AD000800831203133B08BF003C08C000FC
:100698003D08C1000310400D410DC2004208C800CA
:1006A800C808031D602B0030BE000030BD000030BC
:1006B800BC000030BB0008003B08BF003C08C0007D
:1006C8003D08C10017300310C10CC00CBF0CFF3E21
:1006D800031D672B3F08C2004208C300BC17FF3048
:1006E800BB05FF30BC050030BD053B08C4003C0815
:1006F800C5003D08C600C7018E30C802C81FA22B1E
:100708004808803A8F3E0318922B0030BE00003014
:10071800BD000030BC000030BB00080001300310F1
:10072800C70CC60CC50CC40CFF3E031D932B01302F
:10073800BF003F08C8070319BD2B922B1830480289
:10074800031CBA2B0030BE000030BD000030BC00D6
:100758000030BB0008000130BF000310C40DC50DF8
:10076800C60DC70DBF0BB12B0130C802C808031D49
:10077800AF2B43080319CB2BC409C509C609C70900
:10078800C40A0319C50A0319C60A0319C70A470880
:10079800BE004608BD004508BC004408BB00080070
:1007A8008312031323080319DE2B220821042004D3
:1007B800031DF12B0030A0000030A1000030A20082
:1007C80008000130F4007408A30701300310A20CDC
:1007D800A10CA00CFF3E031DEA2BFE3022050319D5
:1007E8000C2CE52B0130F4007408A3070130A00796
:1007F800003003180130A107003003180130A207A8
:1008080001300310A20CA10CA00CFF3E031D052C07
:10081800FF30220503191B2CF62B0130A3020130EF
:100828000310A00DA10DA20DFF3E031D142CA11F46
:10083800112C2318252CFF30A0057F30A105FF308F
:10084800A2050310A30C2308F400F501F6011030EB
:100858000310F40DF50DF60DFF3E031D2C2C740846
:10086800A0047508A1047608A20424080319080046
:10087800A2170800831203136A08DD006B08DE0064
:100888006C08DF006A08D1006B08D2006C08D3003E
:100898000A128A114A250A128A118312031351086F
:1008A800DA005208DB005308DC000A128A115D26C0
:1008B8000A128A11831203135A08E0005B08E10048
:1008C8005C08E2000A128A1185210A128A11831231
:1008D80003135D08ED005E08EE005F08EF006D0889
:1008E800DD006E08DE006F08DF006A08E0006B08B4
:1008F800E1006C08E2000A128A1185210A128A11A5
:10090800831203135D08EA005E08EB005F08EC0041
:100918006A08D1006B08D2006C08D3000A128A1149
:100928004A25831203135108EA005208EB005308C2
:10093800EC00080083120313A201F51FAA2CF40986
:10094800F509F40A0319F50AA201A20AF71FB52C42
:10095800F609F709F60A0319F70A0130A00020087A
:10096800A206A301A401750874040319EC2CA101C3
:10097800A10AF51BCB2C01300310F40DF50DFF3E39
:10098800031DC02C0130A0002008A107BD2C013098
:100998000310A30DA40DFF3E031DCC2C7508770290
:1009A800031DD82C74087602031CE12C7408F60287
:1009B8007508031CF703F702231401300310F50C24
:1009C800F40CFF3E031DE22C0130A102031DCB2CC9
:1009D80022080319F42CA309A409A30A0319A40AD9
:1009E8002408F501F5072308F401F4070800831229
:1009F8000313A201F71F072DF609F709F60A0319D1
:100A0800F70AA201A20AF51F0E2DF409F509F40A46
:100A18000319F50A7508740403193B2DA101A10AED
:100A2800F51B222D01300310F40DF50DFF3E031DBB
:100A3800172D0130A0002008A107142D7508770292
:100A4800031D282D74087602031C302D7408F60245
:100A58007508031CF703F70201300310F50CF40CBA
:100A6800FF3E031D312D0130A102031D222D220856
:100A78000319432DF609F709F60A0319F70A770847
:100A8800F501F5077608F401F4070800831203134B
:100A98005108F4005208F5005308F6005830D40005
:100AA8005408F7000A128A11D6250A128A118312ED
:100AB8000313D91F662D0030D1000030D20000305A
:100AC800D3000800003059021530031958020318E2
:100AD80008005108BB005208BC005308BD000A12A8
:100AE8008A1146230A128A11831203133E08CC0086
:100AF8003D08CB003C08CA003B08C9000A128A110D
:100B08009425831203134908D5004A08D6004B08D8
:100B1800D7005508D1005608D2005708D30008005E
:100B280083120313D0018E30CD004D08CF00CC1FA7
:100B3800AA2DC909CA09CB09CC09C90A0319CA0AC5
:100B48000319CB0A0319CC0AD001D00AFF304C058F
:100B58000319BC2D01300310CC0CCB0CCA0CC90CEA
:100B6800FF3E031DAF2D0130CD004D08CF07AA2D44
:100B78004908A0004A08A1004B08A2004F08CD0070
:100B88004D08A3005008CE004E08A4000A128A118E
:100B9800D423831203132008C9002108CA0022089D
:100BA800CB000800760875047404031DE22D77084D
:100BB800840083138001840A8001080076087F3945
:100BC80083120313A000A1010310A00DA10D770843
:100BD8008400200883138000840A21088000750D92
:100BE800750D0139A000A101770884002008800450
:100BF800840A210880047708840082308007840FE3
:100C080000080318000AFF00FF307F0780008403F4
:100C1800760880393F38F600F5130800831203136D
:100C2800AA01A61F1E2EA509A609A50A0319A60A28
:100C3800AA01AA0A2508A0002608A100A2018E3050
:100C4800A8002808A3002A08A9002908A4000A1255
:100C58008A11D423831203132008A5002108A600B3
:100C68002208A70008008B130C1F412E0C1301301B
:100C780083160313AD000030AE008B177308831280
:100C8800FF0072088A0071088400700E8300FE0E4F
:100C98007E0E0900FF30F4070318F50AFF30F50748
:100CA800FF307506031D5A2EFF307406031908001D
:100CB8004E2E831203135C085B045A0403190800C0
:060CC8008030DC0608008C
:02400E0071FF40
:00000001FF
