:100000000A128A11FA2F00308A000408840A820733
:0A00100000348034C0349434D4343A
:100DB200F7007708831203138600071087140711C0
:100DC20001300A128A1125278312031387100800A3
:100DD200FF30F7007708F80083120313081E002F74
:100DE20014300A128A1125270A128A118312031358
:100DF20008080F39F7007708F800081AFE2E78085D
:100E0200080001300A128A1125270A128A11383085
:100E12000A128A11D9260A128A1108300A128A1174
:100E2200D9260A128A1101300A128A11D9260A1207
:100E32008A1106300A128A11D9260A128A110F3033
:100E42000A128A11D9260800F2007208F000F10194
:100E52007008F3007108F4007408730403190800A1
:100E6200F501F6017608803AFF0081307F02031D0A
:100E72003C2F0030750203184F2F0130F50703187D
:100E8200F60A0030F6077608803AFF0081307F02CA
:100E9200031D4D2F00307502031C3E2FFF30F30758
:100EA2000318F40AFF30F4072D2FF90004307C02F6
:100EB200031C772F01300A128A11D9260A128A11CD
:100EC20002300A128A1125270A128A11FC01FD0139
:100ED2007C08013E84000A128A1103200A128A1138
:100EE2000A128A11D9260A128A118D2F14307D0214
:100EF200031C8D2F0130F8007808FC077C08013EA6
:100F020084000A128A1103200A128A110A128A1113
:100F1200D9260A128A11FD01790883120313860069
:100F220007148714071101300A128A112527831228
:100F3200031387100130F8007808FD070800C0305D
:100F42008316031381008501870186011F30880003
:100F52000A128A1102270A128A11CB2F3130C62FA8
:100F62003230C62F3330C62F3430C62F3530C62F1D
:100F72003630C62F3730C62F3830C62F3930C62FFD
:100F82002A30C62F3030C62F23300A128A11562734
:100F92000A128A110A128A11E9260A128A11FA0021
:100FA2007A08FB007B08003A0319AF2F013A0319B4
:100FB200B12F033A0319B32F063A0319B52F013A99
:100FC2000319B72F033A0319B92F0E3A0319BB2F8E
:100FD200013A0319BD2F033A0319BF2F063A031929
:100FE200C12F013A0319C32F033A0319C52FCB2F7F
:0E0FF200CB2FFC01FD0183010A128A11A02FF2
:02400E0071FF40
:00000001FF
