:100000000A128A11FC2F00308A000408840A820731
:10001000003459346F34753420347034723465349C
:1000200073347334653464342034233400345934E5
:100030006F347534203470347234653473347334EF
:100040006534643420342A34003459346F347534C0
:1000500020347034723465347334733465346434EA
:1000600020343034003459346F34753420347034D3
:100070007234653473347334653464342034313409
:10008000003459346F34753420347034723465342C
:100090007334733465346434203432340034593466
:1000A0006F3475342034703472346534733473347F
:1000B0006534643420343334003459346F34753447
:1000C000203470347234653473347334653464347A
:1000D00020343434003459346F347534203470345F
:1000E0007234653473347334653464342034353495
:1000F000003459346F3475342034703472346534BC
:1001000073347334653464342034363400345934F1
:100110006F3475342034703472346534733473340E
:100120006534643420343734003459346F347534D2
:100130002034703472346534733473346534643409
:1001400020343834003459346F34753420347034EA
:100150007234653473347334653464342034393420
:02016000003469
:100E2C00F000831203130C1E172F70089900080092
:100E3C00FF30F0070318F10AFF30F107FF3071069D
:100E4C00031D2A2FFF307006031908001E2FF20015
:100E5C00720884000A128A1103200A128A110038BF
:100E6C000319492F720884000A128A1103200A12EE
:100E7C008A110A128A1116270A128A110130F100FE
:100E8C007108F2072E2F0D300A128A1116270A123A
:100E9C008A110A300A128A11162708001930831693
:100EAC000313990018128312031398178316031354
:100EBC001813181598160B178B17FF308600831212
:100ECC000313061E652F831206080F39F300F40175
:100EDC007308F5007408F600C72F2B300A128A111C
:100EEC002D270A128A11F22F39300A128A112D2756
:100EFC000A128A11F22F47300A128A112D270A1270
:100F0C008A11F22F55300A128A112D270A128A11D2
:100F1C00F22F63300A128A112D270A128A11F22F2E
:100F2C0071300A128A112D270A128A11F22F7F3082
:100F3C000A128A112D270A128A11F22F8D300A12E9
:100F4C008A112D270A128A11F22F9B300A128A114C
:100F5C002D270A128A11F22F0F300A128A112D270F
:100F6C000A128A11F22F1D300A128A112D270A1229
:100F7C008A11F22F01300A128A112D270A128A11B6
:100F8C00F22F7608003A0319CC2FF22F7508003A8D
:100F9C000319732F013A03197A2F033A0319812F7E
:100FAC00063A0319882F013A03198F2F033A0319B4
:100FBC00962F0E3A03199D2F013A0319A42F033AC9
:100FCC000319AB2F063A0319B22F013A0319B92FA3
:100FDC00033A0319C02FF22F3030F0007530F100B6
:100FEC000A128A111E270A128A11652F83010A120E
:040FFC008A11542FD3
:02400E0071FF40
:00000001FF
