:060000000A128A11122809
:10000800FE00030EF2000408F3000A08F40083124D
:1000180003137F08F5000A128A11DA280A128A11D6
:100028001528F801AD01AE010A128A11FA210A1247
:100038008A11AA000A128A11FB210A128A11AB003E
:100048000A128A11FC21AC0083010A128A112C2899
:10005800C430831603138100013086008701FF3006
:10006800880001170B168B100B118B168B170A12B1
:100078008A1174210A128A11831203132D08A90008
:100088002908A7002E080A128A11BA210A128A1111
:10009800781C4C2878186E284C280C3083120313CF
:1000A80068281830682824306828303068283D309F
:1000B80068284930682855306828613068286D30CC
:1000C8006828781596287A30AA000030AB00962860
:1000D80078119628831203132C08233A03196C28E5
:1000E800093A031965281A3A03196728013A0319C6
:1000F8005128033A03195528013A03195728073A92
:1001080003195928013A03195B28033A03195D2892
:10011800013A03195F280F3A03196128013A0319B4
:1001280063289628781DB8282D08093A031DA828A1
:10013800AD012E08093A031DA328AE01AC280130F1
:10014800A9002908AE07AC280130A9002908AD0785
:100158002B08A101A1072A08A001A0070A128A11E9
:100168009C210A128A11402878194C28AD08031DD1
:10017800CC280930A9002908AD00AE08031DC928FC
:100188000930A9002908AE00CE280130AE02CE28D9
:100198000130AD022B08A101A1072A08A001A00780
:1001A8000A128A119C210A128A1140288B138B1C6F
:1001B8002F298B10781408080F39F000F101700806
:1001C800F6007108F70003293130FF283230FF2884
:1001D8003330FF283430FF283530FF283630FF28E9
:1001E8003730FF283830FF283930FF282A30FF28D9
:1001F8003030FF282330F0007008AC00332977082E
:10020800003A0319082933297608003A0319E8281F
:10021800013A0319EA28033A0319EC28063A0319A4
:10022800EE28013A0319F028033A0319F2280E3A86
:100238000319F428013A0319F628033A0319F82890
:10024800063A0319FA28013A0319FC28033A031954
:10025800FE28332933290B1D33290B11F8148B176A
:100268007508FF0074088A0073088400720E830002
:10027800FE0E7E0E0900831203132108A301A307B3
:100288002008A201A2072308220403190800A401D8
:10029800A5012508803AFF0081307F02031D5629F9
:1002A8000030240203186B29013083120313A407BA
:1002B8000318A50A0030A5072508803AFF008130F9
:1002C8007F02031D692900302402031C5829FF30CE
:1002D80083120313A2070318A30AFF30A3074729B1
:1002E800013083120313A0000030A1000A128A1102
:1002F8003F210A128A1138300A128A11E7210A129C
:100308008A1108300A128A11E7210A128A1101306B
:100318000A128A11E7210A128A1106300A128A1172
:10032800E7210A128A110C300A128A11E721080003
:1003380083120313A301A401831203132408803A30
:10034800A2002108803A2202031DAC2920082302BA
:1003580003180800F81CA029013083120313A3070F
:100368000318A40A0030A407F810A0298312031365
:10037800A8009D300A128A11E7210A128A118312F5
:1003880003132808303E0A128A11D4210A128A114E
:10039800831203132708303E0A128A11D421080059
:1003A80083120313A60026088700861406118615F3
:1003B8000130A0000030A1000A128A113F218312E7
:1003C80003138611080083120313A600260887006A
:1003D8008610061186150130A0000030A1000A120F
:1003E8008A113F2183120313861108007A340034DE
:0203F8002034AF
:02400E0071FF40
:00000001FF
