:060000000A128A11122809
:10000800FE00030EF0000408F1000A08F200831253
:1000180003137F08F3000A128A1144290A128A116D
:100028001528F601A901AA010A128A1182210A12C9
:100038008A11F7000A128A1183210A128A11F8001C
:100048000A128A118421F90083010A128A112C28C4
:10005800C430831603138100013086008701FF3006
:10006800880001170B168B100B118B168B170A12B1
:100078008A11E6200A128A11831203132908A7009D
:100088002708A5002A080A128A112A210A128A11A9
:10009800761C5328AE2876156628761166288312B2
:1000A800031308080F39A700A8012808003A031904
:1000B8005E28662827080C3A03194F28023A0319C4
:1000C80051286628761D82282908093A031D7D28AB
:1000D800A9012A08023A031D78282908043A031DB1
:1000E8007828AA01A90199280130A7002708AA079A
:1000F80099280130A7002708A9079928761999286F
:10010800A908031D9728AA08031D90280230A700F4
:100118002708AA00043093280130AA020930A70052
:100128002708A90099280130A9027A30F400003084
:10013800F5000A128A110C210A128A11831203137C
:100148002908A7002708A5002A080A128A112A21C7
:100158000A128A11761C4C2840287508831203134A
:10016800A101A1077408A001A00721082004031910
:100178000800A201A3012308803AFF0081307F0212
:10018800031DC828003022020318DD28013083121D
:100198000313A2070318A30A0030A3072308803A11
:1001A800FF0081307F02031DDB2800302202031C80
:1001B800CA28FF3083120313A0070318A10AFF30CF
:1001C800A107B9280130F4000030F5000A128A119D
:1001D800B1200A128A1138300A128A116F210A12C4
:1001E8008A1108300A128A116F210A128A11013005
:1001F8000A128A116F210A128A1106300A128A110C
:100208006F210A128A110C300A128A116F21080014
:1002180083120313A101A201831203132208803A57
:10022800A0007508803A2002031D1C2974082102C9
:1002380003180800F61C1029013083120313A107C4
:100248000318A20A0030A207F6101029831203131C
:10025800A6009D300A128A116F210A128A11831290
:1002680003132608303E0A128A115C210A128A11E9
:10027800831203132508303E0A128A115C210800F4
:100288008B138B1C4B298B100130F60650290B1D44
:1002980050290B110230F6068B177308FF007208FD
:1002A8008A0071088400700E8300FE0E7E0E09001D
:1002B80083120313A40024088700861406118615E8
:1002C8000130F4000030F5000A128A11B1208312BF
:1002D80003138611080083120313A400240887005F
:1002E8008610061186150130F4000030F5000A1258
:1002F8008A11B12083120313861108007A3400345E
:0203080020349F
:02400E0071FF40
:00000001FF
