:060000000A128A11122809
:10000800FE00030EF2000408F3000A08F40083124D
:1000180003137F08F5000A128A111C280A128A1194
:100028001528F801A701A80183010A128A1183285B
:100038008B138B1C73288B10781408080F39F00069
:10004800F1017008F6007108F70077087604031DBF
:100058003028781501306F28013076067704031DA3
:100068003828781502306F28023076067704031D89
:100078004028781503306F28043076067704031D6E
:100088004828781504306F28053076067704031D54
:100098005028781505306F28063076067704031D3A
:1000A8005828781506306F28083076067704031D1F
:1000B8006028781507306F28093076067704031D05
:1000C8006828781508306F280A3076067704031DEB
:1000D800772878150930A7000030A80077280B1D6D
:1000E80077280B11F8148B177508FF0074088A001D
:1000F80073088400720E8300FE0E7E0E09008312C0
:100108000313A601A60AC430831603138100FF3027
:1001180086008701FF30880001170B168B100B1122
:100128008B168B1783120313870178189E2878186B
:10013800B1289B28831203132608093A031DA62811
:10014800A601B128781DAD282708A5002508A60016
:10015800B1280130A5002508A6077811323083128E
:100168000313A0000030A1000A128A11C2200A124B
:100178008A11831203132608870099288312031310
:10018800A301A401831203132408803AA2002108C2
:10019800803A2202031DD2282008230203180800EF
:1001A800F81CC628013083120313A3070318A40AF6
:0801B8000030A407F810C6286E
:02400E0071FF40
:00000001FF
