:060000000A128A11122809
:10000800FE00030EF0000408F1000A08F200831253
:1000180003137F08F3000A128A111A280A128A1198
:100028001528F40183010A128A114C288B138B1CA2
:1000380040288B10080803300802031826280808EF
:10004800013E3F2804300802031C3028073008020C
:100058000318302808083F2808300802031C3B28EA
:100068000B30080203183B280808FF3E3F280D30D4
:1000780088008701402887008B177308FF007208E3
:100088008A0071088400700E8300FE0E7E0E09003F
:10009800831603138701FF308800C33081000117DE
:0E00A8000B168B108B178312031387015A2837
:02400E0071FF40
:00000001FF
