:060000000A128A11122809
:10000800FE00030EF1000408F2000A08F300831250
:1000180003137F08F4000A128A111B280A128A1196
:100028001528F701F80183010A128A116E288B132B
:100038008B1C22288B100130F70662280B1D6228C2
:100048000B11061C622808080F39F0007008F80028
:10005800412801303D2802303D2803303D28043036
:100068003D2805303D2806303D283C2808303D28ED
:10007800073087006128870161287808003A03194A
:100088002D28013A03192F28033A03193128063A73
:1000980003193328013A03193528033A0319372875
:1000A8000E3A03193928013A03193A28033A031971
:1000B8003C28073A03193F283F28F7148B17740880
:1000C800FF0073088A0072088400710E8300FE0E18
:1000D8007E0E0900831603138501FF308600870111
:1000E800FF308800043081008B160B118B178312A8
:1000F80003138501870101308312031385007A30C9
:10010800F5000030F6000A128A1199200A128A11A5
:100118008312031385017A30F5000030F6000A12C5
:100128008A1199200A128A117F2883120313A101C8
:10013800A201831203132208803AA0007608803AAD
:100148002002031DA9287508210203180800F71CBE
:100158009D28F710013083120313A1070318A20A80
:060168000030A2079D28F3
:02400E0071FF40
:00000001FF
