:060000000A128A11122809
:10000800FE00030EF0000408F1000A08F200831253
:1000180003137F08F3000A128A115A2A0A128A1156
:100028001528F90183010A128A11822900308A00F1
:100038000408840A820700345B3433345D34203486
:1000480053347034723469347434653420344D3424
:1000580065346434693475346D34003445346D3432
:1000680065347234673465346E34633479342034DB
:10007800533474346F3470342E342E342E340034A8
:100088005B3434345D34203453347034723469341E
:100098007434653420344C346134723467346534D4
:1000A80000345B3431345D34203443346F346B3482
:1000B800653420344D3465346434693475346D34B2
:1000C80000345B3432345D34203443346F346B3461
:1000D800653420344C346134723467346534003408
:1000E800443469347334703465346E347334693429
:1000F8006E3467342E342E342E34003401300A1214
:100108008A1185220A128A11C2300A128A1185229E
:100118000A128A1113300A128A111C220A128A1131
:10012800053083120313A4000030A5002508803A87
:10013800FF0080307F02031DA32801302402031C26
:10014800D6289A300A128A1185220A128A11831235
:1001580003132408303E0A128A1172220A128A11E5
:1001680073300A128A1172220A128A117A30F40044
:100178000030F5000A128A1142220A128A11FF3051
:1001880083120313A4070318A50AFF30A50725083F
:10019800803AFF0080307F02031DD42801302402FA
:1001A8000318A5287910080001300A128A1185223F
:1001B8000A128A11C3300A128A1185220A128A1178
:1001C80055300A128A111C220A128A11033083122E
:1001D8000313A6000030A7002708803AFF008030EC
:1001E8007F02031DF92801302602031C08009A30FB
:1001F8000A128A1185220A128A1183120313260809
:10020800303E0A128A1172220A128A1173300A12B7
:100218008A1172220A128A117A30F4000030F5002D
:100228000A128A1142220A128A11791C242983127D
:100238000313A601A7010A128A1182200A128A1141
:10024800FF3083120313A6070318A70AFF30A70776
:10025800F02801300A128A1185220A128A11C33045
:100268000A128A1185220A128A1155300A128A1135
:100278001C220A128A11053083120313A6000030CB
:10028800A7002708803AFF0080307F02031D4E290F
:1002980001302602031C08009A300A128A118522AE
:1002A8000A128A11831203132608303E0A128A1191
:1002B80072220A128A1173300A128A1172220A12E1
:1002C8008A117A30F4000030F5000A128A114222AD
:1002D8000A128A11791C792983120313A601A7012E
:1002E8000A128A1182200A128A11FF30831203131C
:1002F800A6070318A70AFF30A70745290F3083165A
:10030800031386008701FF308800C430810001177D
:100318000B168B108B160B118B170A128A11F621EC
:100328000A128A110A128A11C1210A128A11831229
:100338000313081ABC299B2908080F39A8002808A4
:10034800A900B2290A128A11D8200A128A11BC29D6
:100358000A128A112D210A128A11BC298312031349
:100368002908003A0319A629013A0319AC29BC291E
:1003780083120313081E9629A02901300A128A1134
:1003880085220A128A1180300A128A1185220A12DD
:100398008A1136300A128A111C220A128A11C030B8
:1003A8000A128A1185220A128A1146300A128A1103
:1003B8001C220A128A1194300A128A1185220A1202
:1003C8008A1101300A128A111C220A128A11D430A9
:1003D8000A128A1185220A128A1125300A128A11F4
:1003E8001C2208000130F4000030F5000A128A11BE
:1003F80042220A128A1138300A128A1185220A12F8
:100408008A1108300A128A1185220A128A110130CB
:100418000A128A1185220A128A1106300A128A11D2
:1004280085220A128A110F300A128A1185220800C1
:1004380083120313A300A101A2012108230784004A
:100448000A128A111A200A128A11003803190800A0
:100458002108230784000A128A111A200A128A1115
:100468000A128A1172220A128A11013083120313A6
:10047800A1070318A20A0030A207212AF701F801F0
:100488007808803AF6007508803A7602031D4E2AED
:100498007408770203180800F91C442A0130F7078A
:1004A8000318F80A0030F807F910442A8B138B1C3C
:1004B800612A8B100130F906662A0B1D662A0B117A
:1004C8000230F9068B177308FF0072088A0071085A
:1004D8008400700E8300FE0E7E0E09008312031343
:1004E800A000200887000616861606130130F400BF
:1004F8000030F5000A128A11422283120313861271
:10050800080083120313A00020088700061286162D
:1005180006130130F4000030F5000A128A11422255
:08052800831203138612080080
:02400E0071FF40
:00000001FF
