:060000000A128A11122809
:10000800FE00030EF7000408F8000A08F90083123E
:1000180003137F08FA000A128A11D2290A128A11D8
:100028001528F001F101F201F301F401F501F601DF
:10003800A001A101A201A301A4010A128A11E121D0
:100048000A128A11FB000A128A11E2210A128A1185
:10005800FC000A128A11E321FD0083010A128A11A9
:100068003528033083160313860087013E3092003B
:1000780006308312031395001C30970007110630D1
:100088009200061C90280130F5070318F60A003084
:10009800F60776087504031D5B283E3083160313A4
:1000A80092001230FB008330FC003A30782801308F
:1000B80075067604031D6A282930831603139200F7
:1000C8006030FB00E530FC003B30782802307506D4
:1000D8007604031D7A280530831603139200B7307F
:1000E800FB00D130FC003830FD008D28003076024E
:1000F800033003197502031C8D28F501F60112302F
:10010800FB008330FC003A30FD003E3083160313B9
:100118009200831206188D28861CD5280130F30713
:100128000318F40A0030F407740873040319CD287F
:10013800013073067404031DA7280030F0008030D6
:10014800F1003E30D228023073067404031DB02833
:100158000030F0000030C128033073067404031D1A
:10016800B9280030F0004030C12804307306740408
:10017800031DC4283330F0007330F1003F30D2281B
:1001880000307402053003197302031CD328F301ED
:10019800F401CD30F000CC30F1003D30F20086188B
:1001A800D3283A307D06031DDF2883307C06031DE3
:1001B800DF2812307B06031D25293D307206031DFA
:1001C800EB28CC307106031DEB28CD3070060319DF
:1001D80023293E307206031DF72880307106031D5F
:1001E800F72800307006031DFB280F30BA293F306E
:1001F8007206031D052900307106031D052900300C
:100208007006031965293F307206031D1129403015
:100218007106031D112900307006031D15292F30A2
:10022800CA293F307206031D1F2973307106031D4A
:100238001F2933307006031D23293B309C290630C3
:10024800CE293B307D06031D2F29E5307C06031D92
:100258002F2960307B06031D75293D307206031D6A
:100268003B29CC307106031D3B29CD30700603199C
:10027800CD293E307206031D472980307106031DC3
:10028800472900307006031D4B290A309C293F304E
:100298007206031D552900307106031D55290030CB
:1002A8007006031D59291430BA293F307206031D00
:1002B800632940307106031D632900307006031D51
:1002C80067291F30CE293F307206031D712973300C
:1002D8007106031D712933307006031DCD2927309F
:1002E8009C2938307D06031D7F29D1307C06031DEB
:1002F8007F29B7307B06031D45283D307206031D54
:100308008B29CC307106031D8B29CD307006031D57
:100318008F299501BB293E307206031D992980302B
:100328007106031D992900307006031D9F290130AD
:1003380095002C30D0293F307206031DA9290030C2
:100348007106031DA92900307006031DAD2903306D
:10035800CE293F307206031DB72940307106031DB0
:10036800B72900307006031DBD29043095003C30C4
:10037800D0293F307206031DC72973307106031D4B
:10038800C72933307006031DCD29063095000C307F
:10039800D029043095001C30970045288B138C1801
:1003A8008C108B177A08FF0079088A007808840077
:1003B800770E8300FE0E7E0E0900123483343A3421
:02400E0071FF40
:00000001FF
